:100000000C9461000C947E000C947E000C947E0095
:100010000C947E000C947E000C947E000C947E0068
:100020000C947E000C947E000C947E000C947E0058
:100030000C947E000C947E000C947E000C947E0048
:100040000C949A000C947E000C947E000C947E001C
:100050000C947E000C947E000C947E000C947E0028
:100060000C947E000C947E0000000007000201004A
:100070000003040600000000000000000102040864
:100080001020408001020408102001020408102002
:10009000040404040404040402020202020203032E
:1000A00003030303000000002300260029000000D2
:1000B0000000250028002B0000000000240027007D
:1000C0002A0011241FBECFEFD8E0DEBFCDBF11E064
:1000D000A0E0B1E0E0E0F4E002C005900D92A030B5
:1000E000B107D9F711E0A0E0B1E001C01D92A9303D
:1000F000B107E1F70E94F7010C94FE010C94000097
:100100008DE061E00E949F0108958DE061E00E9412
:10011000C00168EE73E080E090E00E940E018DE087
:1001200060E00E94C00168EE73E080E090E00E9411
:100130000E0108951F920F920FB60F9211242F9364
:100140003F938F939F93AF93BF93809100019091C2
:100150000101A0910201B091030130910801232F08
:100160002D5F2D3720F40196A11DB11D05C0232F51
:100170002A570296A11DB11D20930801809300010A
:1001800090930101A0930201B093030180910401B7
:1001900090910501A0910601B09107010196A11D62
:1001A000B11D8093040190930501A0930601B093C3
:1001B0000701BF91AF919F918F913F912F910F9028
:1001C0000FBE0F901F9018950F931F939FB7F89431
:1001D0000091040110910501209106013091070161
:1001E00086B5A89B06C08F3F21F00F5F1F4F2F4F92
:1001F0003F4F9FBF322F212F102F0027080F111DB7
:10020000211D311D42E0000F111F221F331F4A958F
:10021000D1F7B801C9011F910F910895CF92DF92D4
:10022000EF92FF92CF93DF936B017C010E94E40079
:10023000DC01CB01EC010FC00E94E4006C1B7D0BC4
:1002400083E0683E780738F00894C108D108E108D7
:10025000F108C851DC4FC114D104E104F10461F785
:10026000DF91CF91FF90EF90DF90CF900895789439
:1002700084B5826084BD84B5816084BD85B58260AB
:1002800085BD85B5816085BDEEE6F0E08081816049
:100290008083E1E8F0E01082808182608083808149
:1002A00081608083E0E8F0E0808181608083E1EB21
:1002B000F0E0808184608083E0EBF0E08081816009
:1002C0008083EAE7F0E080818460808380818260BF
:1002D00080838081816080838081806880831092A8
:1002E000C1000895833071F0843028F48130A1F08A
:1002F000823021F514C08630B1F08730D1F08430DF
:10030000E9F404C0809180008F7703C08091800061
:100310008F7D80938000089584B58F7702C084B567
:100320008F7D84BD08958091B0008F778093B00059
:1003300008958091B0008F7D8093B000089590E083
:10034000FC01E458FF4F2491FC01E057FF4FE4917A
:10035000EE23A9F0F0E0EE0FFF1FE854FF4F859168
:100360009491DC019FB7F8948C91662329F4209531
:1003700082238C939FBF0895822B8C939FBF0895F7
:100380000F931F93CF93DF930F92CDB7DEB7282F34
:1003900030E0F901E859FF4F8491F901E458FF4F2B
:1003A0001491F901E057FF4F04910023D1F0882305
:1003B00021F069830E9472016981E02FF0E0EE0F65
:1003C000FF1FE255FF4F85919491DC019FB7F89490
:1003D0008C91662319F41095812301C0812B8C9395
:1003E0009FBF0F90DF91CF911F910F9108950E94B1
:1003F00037010E9480000E948500FDCFF894FFCF56
:00000001FF
